{
  "contractName": "AlloyXReserve",
  "abi": [
    {
      "inputs": [],
      "stateMutability": "nonpayable",
      "type": "constructor"
    },
    {
      "inputs": [
        {
          "internalType": "uint256",
          "name": "amount",
          "type": "uint256"
        },
        {
          "internalType": "address",
          "name": "depositToken",
          "type": "address"
        },
        {
          "internalType": "address",
          "name": "withdrawToken",
          "type": "address"
        }
      ],
      "name": "swap",
      "outputs": [],
      "stateMutability": "nonpayable",
      "type": "function"
    }
  ],
  "bytecode": "0x608060405234801561001057600080fd5b5061037e806100206000396000f3fe608060405234801561001057600080fd5b5060043610610047577c010000000000000000000000000000000000000000000000000000000060003504632b7f0923811461004c575b600080fd5b61005f61005a3660046102b6565b610061565b005b6040517f23b872dd00000000000000000000000000000000000000000000000000000000815282908290339073ffffffffffffffffffffffffffffffffffffffff8416906323b872dd906100bd90849030908b906004016102f1565b602060405180830381600087803b1580156100d757600080fd5b505af11580156100eb573d6000803e3d6000fd5b505050506040513d601f19601f8201168201806040525081019061010f919061028f565b506040517f095ea7b300000000000000000000000000000000000000000000000000000000815273ffffffffffffffffffffffffffffffffffffffff83169063095ea7b3906101649084908a90600401610322565b602060405180830381600087803b15801561017e57600080fd5b505af1158015610192573d6000803e3d6000fd5b505050506040513d601f19601f820116820180604052508101906101b6919061028f565b506040517fa9059cbb00000000000000000000000000000000000000000000000000000000815273ffffffffffffffffffffffffffffffffffffffff83169063a9059cbb9061020b9084908a90600401610322565b602060405180830381600087803b15801561022557600080fd5b505af1158015610239573d6000803e3d6000fd5b505050506040513d601f19601f8201168201806040525081019061025d919061028f565b50505050505050565b803573ffffffffffffffffffffffffffffffffffffffff8116811461028a57600080fd5b919050565b6000602082840312156102a0578081fd5b815180151581146102af578182fd5b9392505050565b6000806000606084860312156102ca578182fd5b833592506102da60208501610266565b91506102e860408501610266565b90509250925092565b73ffffffffffffffffffffffffffffffffffffffff9384168152919092166020820152604081019190915260600190565b73ffffffffffffffffffffffffffffffffffffffff92909216825260208201526040019056fea26469706673582212205d89e3048b709f6b6707d0a3dd112a8d287ac0cf31e2da2c245c5d14429b13c064736f6c63430008000033",
  "immutableReferences": {},
  "source": "// SPDX-License-Identifier: MIT\npragma solidity ^0.8.0;\n\n// ============ External Imports ============\nimport \"@openzeppelin/contracts/token/ERC20/ERC20.sol\";\n\n/**\n * @title TokeVault\n * @notice The source network vault that holds all deposits on the source chain. This vault manages deposits and redemptions for source network deposits.\n */\ncontract AlloyXReserve  {\n\n\n\t/**\n\t * @dev Constructor sets token that can be received\n\t */\n\tconstructor(\n\n\t) {\n\n\t}\n\t\n\tfunction swap(uint256 amount, address depositToken, address withdrawToken) external {\n\t    ERC20 depositERC20 = ERC20(depositToken);\n\t    ERC20 withdrawERC20 = ERC20(withdrawToken);\n\t    \n\t    address from = msg.sender;\n\n\t\tdepositERC20.transferFrom(from, address(this), amount);\n\n\t\twithdrawERC20.approve(from, amount);\n\t\twithdrawERC20.transfer(from, amount);\n\t}\n\n}",
  "sourcePath": "/Users/charlespacker/alloyx-mobile/client/contracts/AlloyXReserve.sol",
  "compiler": {
    "name": "solc",
    "version": "0.8.0+commit.c7dfd78e.Emscripten.clang"
  },
  "schemaVersion": "3.4.3",
  "updatedAt": "2021-11-04T16:28:23.987Z",
  "networkType": "ethereum",
  "devdoc": {
    "kind": "dev",
    "methods": {
      "constructor": {
        "details": "Constructor sets token that can be received"
      }
    },
    "title": "TokeVault",
    "version": 1
  },
  "userdoc": {
    "kind": "user",
    "methods": {},
    "notice": "The source network vault that holds all deposits on the source chain. This vault manages deposits and redemptions for source network deposits.",
    "version": 1
  }
}